{
  "contractName": "Voting",
  "abi": [
    {
      "anonymous": false,
      "inputs": [
        {
          "indexed": true,
          "internalType": "address",
          "name": "previousOwner",
          "type": "address"
        },
        {
          "indexed": true,
          "internalType": "address",
          "name": "newOwner",
          "type": "address"
        }
      ],
      "name": "OwnershipTransferred",
      "type": "event"
    },
    {
      "anonymous": false,
      "inputs": [
        {
          "indexed": false,
          "internalType": "uint256",
          "name": "proposalId",
          "type": "uint256"
        }
      ],
      "name": "ProposalRegistered",
      "type": "event"
    },
    {
      "anonymous": false,
      "inputs": [
        {
          "indexed": false,
          "internalType": "address",
          "name": "voter",
          "type": "address"
        },
        {
          "indexed": false,
          "internalType": "uint256",
          "name": "proposalId",
          "type": "uint256"
        }
      ],
      "name": "Voted",
      "type": "event"
    },
    {
      "anonymous": false,
      "inputs": [
        {
          "indexed": false,
          "internalType": "address",
          "name": "voterAddress",
          "type": "address"
        }
      ],
      "name": "VoterRegistered",
      "type": "event"
    },
    {
      "anonymous": false,
      "inputs": [
        {
          "indexed": false,
          "internalType": "enum Voting.WorkflowStatus",
          "name": "previousStatus",
          "type": "uint8"
        },
        {
          "indexed": false,
          "internalType": "enum Voting.WorkflowStatus",
          "name": "newStatus",
          "type": "uint8"
        }
      ],
      "name": "WorkflowStatusChange",
      "type": "event"
    },
    {
      "inputs": [],
      "name": "owner",
      "outputs": [
        {
          "internalType": "address",
          "name": "",
          "type": "address"
        }
      ],
      "stateMutability": "view",
      "type": "function",
      "constant": true
    },
    {
      "inputs": [],
      "name": "renounceOwnership",
      "outputs": [],
      "stateMutability": "nonpayable",
      "type": "function"
    },
    {
      "inputs": [
        {
          "internalType": "address",
          "name": "newOwner",
          "type": "address"
        }
      ],
      "name": "transferOwnership",
      "outputs": [],
      "stateMutability": "nonpayable",
      "type": "function"
    },
    {
      "inputs": [],
      "name": "winningProposalID",
      "outputs": [
        {
          "internalType": "uint256",
          "name": "",
          "type": "uint256"
        }
      ],
      "stateMutability": "view",
      "type": "function",
      "constant": true
    },
    {
      "inputs": [],
      "name": "winningProposalIDVoteCount",
      "outputs": [
        {
          "internalType": "uint256",
          "name": "",
          "type": "uint256"
        }
      ],
      "stateMutability": "view",
      "type": "function",
      "constant": true
    },
    {
      "inputs": [],
      "name": "workflowStatus",
      "outputs": [
        {
          "internalType": "enum Voting.WorkflowStatus",
          "name": "",
          "type": "uint8"
        }
      ],
      "stateMutability": "view",
      "type": "function",
      "constant": true
    },
    {
      "inputs": [
        {
          "internalType": "address",
          "name": "_addr",
          "type": "address"
        }
      ],
      "name": "getVoter",
      "outputs": [
        {
          "components": [
            {
              "internalType": "bool",
              "name": "isRegistered",
              "type": "bool"
            },
            {
              "internalType": "bool",
              "name": "hasVoted",
              "type": "bool"
            },
            {
              "internalType": "uint256",
              "name": "votedProposalId",
              "type": "uint256"
            }
          ],
          "internalType": "struct Voting.Voter",
          "name": "",
          "type": "tuple"
        }
      ],
      "stateMutability": "view",
      "type": "function",
      "constant": true
    },
    {
      "inputs": [
        {
          "internalType": "uint256",
          "name": "_id",
          "type": "uint256"
        }
      ],
      "name": "getOneProposal",
      "outputs": [
        {
          "components": [
            {
              "internalType": "string",
              "name": "description",
              "type": "string"
            },
            {
              "internalType": "uint256",
              "name": "voteCount",
              "type": "uint256"
            }
          ],
          "internalType": "struct Voting.Proposal",
          "name": "",
          "type": "tuple"
        }
      ],
      "stateMutability": "view",
      "type": "function",
      "constant": true
    },
    {
      "inputs": [
        {
          "internalType": "address",
          "name": "_addr",
          "type": "address"
        }
      ],
      "name": "addVoter",
      "outputs": [],
      "stateMutability": "nonpayable",
      "type": "function"
    },
    {
      "inputs": [
        {
          "internalType": "string",
          "name": "_desc",
          "type": "string"
        }
      ],
      "name": "addProposal",
      "outputs": [],
      "stateMutability": "nonpayable",
      "type": "function"
    },
    {
      "inputs": [
        {
          "internalType": "uint256",
          "name": "_id",
          "type": "uint256"
        }
      ],
      "name": "setVote",
      "outputs": [],
      "stateMutability": "nonpayable",
      "type": "function"
    },
    {
      "inputs": [],
      "name": "startProposalsRegistering",
      "outputs": [],
      "stateMutability": "nonpayable",
      "type": "function"
    },
    {
      "inputs": [],
      "name": "endProposalsRegistering",
      "outputs": [],
      "stateMutability": "nonpayable",
      "type": "function"
    },
    {
      "inputs": [],
      "name": "startVotingSession",
      "outputs": [],
      "stateMutability": "nonpayable",
      "type": "function"
    },
    {
      "inputs": [],
      "name": "endVotingSession",
      "outputs": [],
      "stateMutability": "nonpayable",
      "type": "function"
    },
    {
      "inputs": [],
      "name": "tallyVotes",
      "outputs": [],
      "stateMutability": "nonpayable",
      "type": "function"
    }
  ],
  "bytecode": "0x60806040523480156200001157600080fd5b5062000032620000266200003860201b60201c565b6200004060201b60201c565b62000104565b600033905090565b60008060009054906101000a900473ffffffffffffffffffffffffffffffffffffffff169050816000806101000a81548173ffffffffffffffffffffffffffffffffffffffff021916908373ffffffffffffffffffffffffffffffffffffffff1602179055508173ffffffffffffffffffffffffffffffffffffffff168173ffffffffffffffffffffffffffffffffffffffff167f8be0079c531659141344cd1fd0a4f28419497f9722a3daafe3b4186f6b6457e060405160405180910390a35050565b61257d80620001146000396000f3fe608060405234801561001057600080fd5b50600436106101005760003560e01c8063a7bfab1611610097578063d4f50f9811610066578063d4f50f9814610217578063ee74c67814610247578063f2fde38b14610251578063f4ab9adf1461026d57610100565b8063a7bfab16146101db578063bdc01431146101e5578063c7038a4e14610203578063c88af42f1461020d57610100565b80638da5cb5b116100d35780638da5cb5b14610151578063945ef7ef1461016f578063a1edffa21461018d578063a2788cce146101ab57610100565b8063230796ae146101055780632fdae3c514610121578063378a21781461013d578063715018a614610147575b600080fd5b61011f600480360381019061011a9190611756565b610289565b005b61013b600480360381019061013691906118c9565b6105e7565b005b61014561082a565b005b61014f610984565b005b610159610a0c565b6040516101669190611953565b60405180910390f35b610177610a35565b604051610184919061197d565b60405180910390f35b610195610a3b565b6040516101a29190611a0f565b60405180910390f35b6101c560048036038101906101c09190611756565b610a4e565b6040516101d29190611afe565b60405180910390f35b6101e3610bb5565b005b6101ed610d0f565b6040516101fa919061197d565b60405180910390f35b61020b610d15565b005b610215610e6f565b005b610231600480360381019061022c9190611b4c565b610fc9565b60405161023e9190611bd6565b60405180910390f35b61024f6110f1565b005b61026b60048036038101906102669190611b4c565b61124a565b005b61028760048036038101906102829190611b4c565b611341565b005b600560003373ffffffffffffffffffffffffffffffffffffffff1673ffffffffffffffffffffffffffffffffffffffff16815260200190815260200160002060000160009054906101000a900460ff16610318576040517f08c379a000000000000000000000000000000000000000000000000000000000815260040161030f90611c4e565b60405180910390fd5b6003600581111561032c5761032b611998565b5b600360009054906101000a900460ff16600581111561034e5761034d611998565b5b1461038e576040517f08c379a000000000000000000000000000000000000000000000000000000000815260040161038590611ce0565b60405180910390fd5b60011515600560003373ffffffffffffffffffffffffffffffffffffffff1673ffffffffffffffffffffffffffffffffffffffff16815260200190815260200160002060000160019054906101000a900460ff16151503610424576040517f08c379a000000000000000000000000000000000000000000000000000000000815260040161041b90611d4c565b60405180910390fd5b600480549050811061046b576040517f08c379a000000000000000000000000000000000000000000000000000000000815260040161046290611db8565b60405180910390fd5b80600560003373ffffffffffffffffffffffffffffffffffffffff1673ffffffffffffffffffffffffffffffffffffffff168152602001908152602001600020600101819055506001600560003373ffffffffffffffffffffffffffffffffffffffff1673ffffffffffffffffffffffffffffffffffffffff16815260200190815260200160002060000160016101000a81548160ff0219169083151502179055506004818154811061052157610520611dd8565b5b9060005260206000209060020201600101600081548092919061054390611e36565b91905055506002546004828154811061055f5761055e611dd8565b5b90600052602060002090600202016001015411156105ab576004818154811061058b5761058a611dd8565b5b906000526020600020906002020160010154600281905550806001819055505b7f4d99b957a2bc29a30ebd96a7be8e68fe50a3c701db28a91436490b7d53870ca433826040516105dc929190611e7e565b60405180910390a150565b600560003373ffffffffffffffffffffffffffffffffffffffff1673ffffffffffffffffffffffffffffffffffffffff16815260200190815260200160002060000160009054906101000a900460ff16610676576040517f08c379a000000000000000000000000000000000000000000000000000000000815260040161066d90611c4e565b60405180910390fd5b6001600581111561068a57610689611998565b5b600360009054906101000a900460ff1660058111156106ac576106ab611998565b5b146106ec576040517f08c379a00000000000000000000000000000000000000000000000000000000081526004016106e390611ef3565b60405180910390fd5b6040516020016106fb90611f39565b60405160208183030381529060405280519060200120816040516020016107229190611f92565b6040516020818303038152906040528051906020012003610778576040517f08c379a000000000000000000000000000000000000000000000000000000000815260040161076f90612026565b60405180910390fd5b61078061162a565b818160000181905250600481908060018154018082558091505060019003906000526020600020906002020160009091909190915060008201518160000190805190602001906107d1929190611644565b506020820151816001015550507f92e393e9b54e2f801d3ea4beb0c5e71a21cc34a5d34b77d0fb8a3aa1650dc18f60016004805490506108119190612046565b60405161081e919061197d565b60405180910390a15050565b61083261155e565b73ffffffffffffffffffffffffffffffffffffffff16610850610a0c565b73ffffffffffffffffffffffffffffffffffffffff16146108a6576040517f08c379a000000000000000000000000000000000000000000000000000000000815260040161089d906120c6565b60405180910390fd5b600460058111156108ba576108b9611998565b5b600360009054906101000a900460ff1660058111156108dc576108db611998565b5b1461091c576040517f08c379a000000000000000000000000000000000000000000000000000000000815260040161091390612158565b60405180910390fd5b6005600360006101000a81548160ff0219169083600581111561094257610941611998565b5b02179055507f0a97a4ee45751e2abf3e4fc8946939630b11b371ea8ae39ccdc3056e98f5cc3f6004600560405161097a929190612178565b60405180910390a1565b61098c61155e565b73ffffffffffffffffffffffffffffffffffffffff166109aa610a0c565b73ffffffffffffffffffffffffffffffffffffffff1614610a00576040517f08c379a00000000000000000000000000000000000000000000000000000000081526004016109f7906120c6565b60405180910390fd5b610a0a6000611566565b565b60008060009054906101000a900473ffffffffffffffffffffffffffffffffffffffff16905090565b60025481565b600360009054906101000a900460ff1681565b610a5661162a565b600560003373ffffffffffffffffffffffffffffffffffffffff1673ffffffffffffffffffffffffffffffffffffffff16815260200190815260200160002060000160009054906101000a900460ff16610ae5576040517f08c379a0000000000000000000000000000000000000000000000000000000008152600401610adc90611c4e565b60405180910390fd5b60048281548110610af957610af8611dd8565b5b9060005260206000209060020201604051806040016040529081600082018054610b22906121d0565b80601f0160208091040260200160405190810160405280929190818152602001828054610b4e906121d0565b8015610b9b5780601f10610b7057610100808354040283529160200191610b9b565b820191906000526020600020905b815481529060010190602001808311610b7e57829003601f168201915b505050505081526020016001820154815250509050919050565b610bbd61155e565b73ffffffffffffffffffffffffffffffffffffffff16610bdb610a0c565b73ffffffffffffffffffffffffffffffffffffffff1614610c31576040517f08c379a0000000000000000000000000000000000000000000000000000000008152600401610c28906120c6565b60405180910390fd5b60036005811115610c4557610c44611998565b5b600360009054906101000a900460ff166005811115610c6757610c66611998565b5b14610ca7576040517f08c379a0000000000000000000000000000000000000000000000000000000008152600401610c9e90611ce0565b60405180910390fd5b6004600360006101000a81548160ff02191690836005811115610ccd57610ccc611998565b5b02179055507f0a97a4ee45751e2abf3e4fc8946939630b11b371ea8ae39ccdc3056e98f5cc3f60036004604051610d05929190612178565b60405180910390a1565b60015481565b610d1d61155e565b73ffffffffffffffffffffffffffffffffffffffff16610d3b610a0c565b73ffffffffffffffffffffffffffffffffffffffff1614610d91576040517f08c379a0000000000000000000000000000000000000000000000000000000008152600401610d88906120c6565b60405180910390fd5b60006005811115610da557610da4611998565b5b600360009054906101000a900460ff166005811115610dc757610dc6611998565b5b14610e07576040517f08c379a0000000000000000000000000000000000000000000000000000000008152600401610dfe90612273565b60405180910390fd5b6001600360006101000a81548160ff02191690836005811115610e2d57610e2c611998565b5b02179055507f0a97a4ee45751e2abf3e4fc8946939630b11b371ea8ae39ccdc3056e98f5cc3f60006001604051610e65929190612178565b60405180910390a1565b610e7761155e565b73ffffffffffffffffffffffffffffffffffffffff16610e95610a0c565b73ffffffffffffffffffffffffffffffffffffffff1614610eeb576040517f08c379a0000000000000000000000000000000000000000000000000000000008152600401610ee2906120c6565b60405180910390fd5b60016005811115610eff57610efe611998565b5b600360009054906101000a900460ff166005811115610f2157610f20611998565b5b14610f61576040517f08c379a0000000000000000000000000000000000000000000000000000000008152600401610f5890612305565b60405180910390fd5b6002600360006101000a81548160ff02191690836005811115610f8757610f86611998565b5b02179055507f0a97a4ee45751e2abf3e4fc8946939630b11b371ea8ae39ccdc3056e98f5cc3f60016002604051610fbf929190612178565b60405180910390a1565b610fd16116ca565b600560003373ffffffffffffffffffffffffffffffffffffffff1673ffffffffffffffffffffffffffffffffffffffff16815260200190815260200160002060000160009054906101000a900460ff16611060576040517f08c379a000000000000000000000000000000000000000000000000000000000815260040161105790611c4e565b60405180910390fd5b600560008373ffffffffffffffffffffffffffffffffffffffff1673ffffffffffffffffffffffffffffffffffffffff1681526020019081526020016000206040518060600160405290816000820160009054906101000a900460ff161515151581526020016000820160019054906101000a900460ff161515151581526020016001820154815250509050919050565b6110f961155e565b73ffffffffffffffffffffffffffffffffffffffff16611117610a0c565b73ffffffffffffffffffffffffffffffffffffffff161461116d576040517f08c379a0000000000000000000000000000000000000000000000000000000008152600401611164906120c6565b60405180910390fd5b6002600581111561118157611180611998565b5b600360009054906101000a900460ff1660058111156111a3576111a2611998565b5b146111e3576040517f08c379a00000000000000000000000000000000000000000000000000000000081526004016111da90612397565b60405180910390fd5b60038060006101000a81548160ff0219169083600581111561120857611207611998565b5b02179055507f0a97a4ee45751e2abf3e4fc8946939630b11b371ea8ae39ccdc3056e98f5cc3f60026003604051611240929190612178565b60405180910390a1565b61125261155e565b73ffffffffffffffffffffffffffffffffffffffff16611270610a0c565b73ffffffffffffffffffffffffffffffffffffffff16146112c6576040517f08c379a00000000000000000000000000000000000000000000000000000000081526004016112bd906120c6565b60405180910390fd5b600073ffffffffffffffffffffffffffffffffffffffff168173ffffffffffffffffffffffffffffffffffffffff1603611335576040517f08c379a000000000000000000000000000000000000000000000000000000000815260040161132c90612429565b60405180910390fd5b61133e81611566565b50565b61134961155e565b73ffffffffffffffffffffffffffffffffffffffff16611367610a0c565b73ffffffffffffffffffffffffffffffffffffffff16146113bd576040517f08c379a00000000000000000000000000000000000000000000000000000000081526004016113b4906120c6565b60405180910390fd5b600060058111156113d1576113d0611998565b5b600360009054906101000a900460ff1660058111156113f3576113f2611998565b5b14611433576040517f08c379a000000000000000000000000000000000000000000000000000000000815260040161142a906124bb565b60405180910390fd5b60011515600560008373ffffffffffffffffffffffffffffffffffffffff1673ffffffffffffffffffffffffffffffffffffffff16815260200190815260200160002060000160009054906101000a900460ff161515036114c9576040517f08c379a00000000000000000000000000000000000000000000000000000000081526004016114c090612527565b60405180910390fd5b6001600560008373ffffffffffffffffffffffffffffffffffffffff1673ffffffffffffffffffffffffffffffffffffffff16815260200190815260200160002060000160006101000a81548160ff0219169083151502179055507fb6be2187d059cc2a55fe29e0e503b566e1e0f8c8780096e185429350acffd3dd816040516115539190611953565b60405180910390a150565b600033905090565b60008060009054906101000a900473ffffffffffffffffffffffffffffffffffffffff169050816000806101000a81548173ffffffffffffffffffffffffffffffffffffffff021916908373ffffffffffffffffffffffffffffffffffffffff1602179055508173ffffffffffffffffffffffffffffffffffffffff168173ffffffffffffffffffffffffffffffffffffffff167f8be0079c531659141344cd1fd0a4f28419497f9722a3daafe3b4186f6b6457e060405160405180910390a35050565b604051806040016040528060608152602001600081525090565b828054611650906121d0565b90600052602060002090601f01602090048101928261167257600085556116b9565b82601f1061168b57805160ff19168380011785556116b9565b828001600101855582156116b9579182015b828111156116b857825182559160200191906001019061169d565b5b5090506116c691906116ef565b5090565b6040518060600160405280600015158152602001600015158152602001600081525090565b5b808211156117085760008160009055506001016116f0565b5090565b6000604051905090565b600080fd5b600080fd5b6000819050919050565b61173381611720565b811461173e57600080fd5b50565b6000813590506117508161172a565b92915050565b60006020828403121561176c5761176b611716565b5b600061177a84828501611741565b91505092915050565b600080fd5b600080fd5b6000601f19601f8301169050919050565b7f4e487b7100000000000000000000000000000000000000000000000000000000600052604160045260246000fd5b6117d68261178d565b810181811067ffffffffffffffff821117156117f5576117f461179e565b5b80604052505050565b600061180861170c565b905061181482826117cd565b919050565b600067ffffffffffffffff8211156118345761183361179e565b5b61183d8261178d565b9050602081019050919050565b82818337600083830152505050565b600061186c61186784611819565b6117fe565b90508281526020810184848401111561188857611887611788565b5b61189384828561184a565b509392505050565b600082601f8301126118b0576118af611783565b5b81356118c0848260208601611859565b91505092915050565b6000602082840312156118df576118de611716565b5b600082013567ffffffffffffffff8111156118fd576118fc61171b565b5b6119098482850161189b565b91505092915050565b600073ffffffffffffffffffffffffffffffffffffffff82169050919050565b600061193d82611912565b9050919050565b61194d81611932565b82525050565b60006020820190506119686000830184611944565b92915050565b61197781611720565b82525050565b6000602082019050611992600083018461196e565b92915050565b7f4e487b7100000000000000000000000000000000000000000000000000000000600052602160045260246000fd5b600681106119d8576119d7611998565b5b50565b60008190506119e9826119c7565b919050565b60006119f9826119db565b9050919050565b611a09816119ee565b82525050565b6000602082019050611a246000830184611a00565b92915050565b600081519050919050565b600082825260208201905092915050565b60005b83811015611a64578082015181840152602081019050611a49565b83811115611a73576000848401525b50505050565b6000611a8482611a2a565b611a8e8185611a35565b9350611a9e818560208601611a46565b611aa78161178d565b840191505092915050565b611abb81611720565b82525050565b60006040830160008301518482036000860152611ade8282611a79565b9150506020830151611af36020860182611ab2565b508091505092915050565b60006020820190508181036000830152611b188184611ac1565b905092915050565b611b2981611932565b8114611b3457600080fd5b50565b600081359050611b4681611b20565b92915050565b600060208284031215611b6257611b61611716565b5b6000611b7084828501611b37565b91505092915050565b60008115159050919050565b611b8e81611b79565b82525050565b606082016000820151611baa6000850182611b85565b506020820151611bbd6020850182611b85565b506040820151611bd06040850182611ab2565b50505050565b6000606082019050611beb6000830184611b94565b92915050565b600082825260208201905092915050565b7f596f75277265206e6f74206120766f7465720000000000000000000000000000600082015250565b6000611c38601283611bf1565b9150611c4382611c02565b602082019050919050565b60006020820190508181036000830152611c6781611c2b565b9050919050565b7f566f74696e672073657373696f6e20686176656e74207374617274656420796560008201527f7400000000000000000000000000000000000000000000000000000000000000602082015250565b6000611cca602183611bf1565b9150611cd582611c6e565b604082019050919050565b60006020820190508181036000830152611cf981611cbd565b9050919050565b7f596f75206861766520616c726561647920766f74656400000000000000000000600082015250565b6000611d36601683611bf1565b9150611d4182611d00565b602082019050919050565b60006020820190508181036000830152611d6581611d29565b9050919050565b7f50726f706f73616c206e6f7420666f756e640000000000000000000000000000600082015250565b6000611da2601283611bf1565b9150611dad82611d6c565b602082019050919050565b60006020820190508181036000830152611dd181611d95565b9050919050565b7f4e487b7100000000000000000000000000000000000000000000000000000000600052603260045260246000fd5b7f4e487b7100000000000000000000000000000000000000000000000000000000600052601160045260246000fd5b6000611e4182611720565b91507fffffffffffffffffffffffffffffffffffffffffffffffffffffffffffffffff8203611e7357611e72611e07565b5b600182019050919050565b6000604082019050611e936000830185611944565b611ea0602083018461196e565b9392505050565b7f50726f706f73616c7320617265206e6f7420616c6c6f77656420796574000000600082015250565b6000611edd601d83611bf1565b9150611ee882611ea7565b602082019050919050565b60006020820190508181036000830152611f0c81611ed0565b9050919050565b50565b6000611f23600083611bf1565b9150611f2e82611f13565b600082019050919050565b60006020820190508181036000830152611f5281611f16565b9050919050565b6000611f6482611a2a565b611f6e8185611bf1565b9350611f7e818560208601611a46565b611f878161178d565b840191505092915050565b60006020820190508181036000830152611fac8184611f59565b905092915050565b7f566f7573206e6520706f7576657a20706173206e65207269656e2070726f706f60008201527f7365720000000000000000000000000000000000000000000000000000000000602082015250565b6000612010602383611bf1565b915061201b82611fb4565b604082019050919050565b6000602082019050818103600083015261203f81612003565b9050919050565b600061205182611720565b915061205c83611720565b92508282101561206f5761206e611e07565b5b828203905092915050565b7f4f776e61626c653a2063616c6c6572206973206e6f7420746865206f776e6572600082015250565b60006120b0602083611bf1565b91506120bb8261207a565b602082019050919050565b600060208201905081810360008301526120df816120a3565b9050919050565b7f43757272656e7420737461747573206973206e6f7420766f74696e672073657360008201527f73696f6e20656e64656400000000000000000000000000000000000000000000602082015250565b6000612142602a83611bf1565b915061214d826120e6565b604082019050919050565b6000602082019050818103600083015261217181612135565b9050919050565b600060408201905061218d6000830185611a00565b61219a6020830184611a00565b9392505050565b7f4e487b7100000000000000000000000000000000000000000000000000000000600052602260045260246000fd5b600060028204905060018216806121e857607f821691505b6020821081036121fb576121fa6121a1565b5b50919050565b7f5265676973746572696e672070726f706f73616c732063616e7420626520737460008201527f6172746564206e6f770000000000000000000000000000000000000000000000602082015250565b600061225d602983611bf1565b915061226882612201565b604082019050919050565b6000602082019050818103600083015261228c81612250565b9050919050565b7f5265676973746572696e672070726f706f73616c7320686176656e742073746160008201527f7274656420796574000000000000000000000000000000000000000000000000602082015250565b60006122ef602883611bf1565b91506122fa82612293565b604082019050919050565b6000602082019050818103600083015261231e816122e2565b9050919050565b7f5265676973746572696e672070726f706f73616c73207068617365206973206e60008201527f6f742066696e6973686564000000000000000000000000000000000000000000602082015250565b6000612381602b83611bf1565b915061238c82612325565b604082019050919050565b600060208201905081810360008301526123b081612374565b9050919050565b7f4f776e61626c653a206e6577206f776e657220697320746865207a65726f206160008201527f6464726573730000000000000000000000000000000000000000000000000000602082015250565b6000612413602683611bf1565b915061241e826123b7565b604082019050919050565b6000602082019050818103600083015261244281612406565b9050919050565b7f566f7465727320726567697374726174696f6e206973206e6f74206f70656e2060008201527f7965740000000000000000000000000000000000000000000000000000000000602082015250565b60006124a5602383611bf1565b91506124b082612449565b604082019050919050565b600060208201905081810360008301526124d481612498565b9050919050565b7f416c726561647920726567697374657265640000000000000000000000000000600082015250565b6000612511601283611bf1565b915061251c826124db565b602082019050919050565b6000602082019050818103600083015261254081612504565b905091905056fea2646970667358221220d64d44735758c4270d5fd8ac60f65a335f5319a848b69aec1eb5569debe7d04d64736f6c634300080d0033",
  "immutableReferences": {},
  "source": "// SPDX-License-Identifier: MIT\n\npragma solidity 0.8.13;\nimport \"../node_modules/@openzeppelin/contracts/access/Ownable.sol\";\n\n/**\n * @title Voting smart contract\n *\n * @author Pire Yohan\n * @notice You can use this contract to run a simple vote\n * @dev Red Wire for a simple voting system  V3.0 Dapp\n */\n\ncontract Voting is Ownable {\n\n\n    uint public winningProposalID;\n    uint public winningProposalIDVoteCount;\n    \n    struct Voter {\n        bool isRegistered;\n        bool hasVoted;\n        uint votedProposalId;\n    }\n\n    struct Proposal {\n        string description;\n        uint voteCount;\n    }\n\n    enum  WorkflowStatus {\n        RegisteringVoters,\n        ProposalsRegistrationStarted,\n        ProposalsRegistrationEnded,\n        VotingSessionStarted,\n        VotingSessionEnded,\n        VotesTallied\n    }\n\n    WorkflowStatus public workflowStatus;\n    Proposal[] proposalsArray;\n    mapping (address => Voter) voters;\n\n    /**\n     * @dev Emitted when voterAddress is registered to the whitelist via admin.\n     */\n    event VoterRegistered(address voterAddress); \n    /**\n     * @dev Emitted when currentWorkflowStatus  set from previous to new status\n     */\n    event WorkflowStatusChange(WorkflowStatus previousStatus, WorkflowStatus newStatus);\n    /**\n     * @dev Emitted when proposalId is registered in the proposal array.\n     */\n    event ProposalRegistered(uint proposalId);\n    /**\n     * @dev Emitted when voter voted for a proposal via 'proposalId'.\n     */\n    event Voted (address voter, uint proposalId);\n\n    /**\n     * @dev Check is the Msg.sender is a registered voter\n     */\n    modifier onlyVoters() {\n        require(voters[msg.sender].isRegistered, \"You're not a voter\");\n        _;\n    }\n\n    // ::::::::::::: GETTERS ::::::::::::: //\n\n    /**\n     * @dev Returns Voter details ... Address.. \n     * - 'msg.sender' needs to be a voter.\n     */\n    function getVoter(address _addr) external onlyVoters view returns (Voter memory) {\n        return voters[_addr];\n    }\n\n    /**\n     * @dev Returns a proposal dtails '_id'\n     *  -'msg.sender' needs to be a voter.\n     */\n    function getOneProposal(uint _id) external onlyVoters view returns (Proposal memory) {\n        return proposalsArray[_id];\n    }\n\n \n    // ::::::::::::: REGISTRATION ::::::::::::: // \n\n    /**\n     * @dev Set Voter's address '_addr' as registered.\n     *      Register a voter and his addr to the Voters Array \n     *  Emits a {VoterRegistered} event.\n     */\n    function addVoter(address _addr) external onlyOwner {\n        require(workflowStatus == WorkflowStatus.RegisteringVoters, 'Voters registration is not open yet');\n        require(voters[_addr].isRegistered != true, 'Already registered');\n    \n        voters[_addr].isRegistered = true;\n        emit VoterRegistered(_addr);\n    }\n \n    // ::::::::::::: PROPOSAL ::::::::::::: // \n\n    /**\n     * @dev Add a proposal in the proposal array 'proposalsArray' with a description '_desc'.\n     * \n     *  Emits a {ProposalRegistered} event with the proposal's ID.\n     */\n    function addProposal(string memory _desc) external onlyVoters {\n        require(workflowStatus == WorkflowStatus.ProposalsRegistrationStarted, 'Proposals are not allowed yet');\n        require(keccak256(abi.encode(_desc)) != keccak256(abi.encode(\"\")), 'Vous ne pouvez pas ne rien proposer'); \n\n        Proposal memory proposal;\n        proposal.description = _desc;\n        proposalsArray.push(proposal);\n        emit ProposalRegistered(proposalsArray.length-1);\n    }\n\n    // ::::::::::::: VOTE ::::::::::::: //\n\n    /**\n     * @dev Vote to a proposal with the ID '_id'. \n     *  Emits a {Voted} event with the message sender's address and the proposal's ID.\n     */\n    function setVote( uint _id) external onlyVoters {\n        require(workflowStatus == WorkflowStatus.VotingSessionStarted, 'Voting session havent started yet');\n        require(voters[msg.sender].hasVoted != true, 'You have already voted');\n        require(_id < proposalsArray.length, 'Proposal not found'); // pas oblig, et pas besoin du >0 car uint\n\n        voters[msg.sender].votedProposalId = _id;\n        voters[msg.sender].hasVoted = true;\n        proposalsArray[_id].voteCount++;\n\n        if(proposalsArray[_id].voteCount > winningProposalIDVoteCount) {\n            winningProposalIDVoteCount = proposalsArray[_id].voteCount;\n            winningProposalID = _id;\n        }\n\n        emit Voted(msg.sender, _id);\n    }\n\n    // ::::::::::::: STATE ::::::::::::: //\n\n\n    /**\n     * @dev Sets 'currentWorkflowStatus' from 'WorkflowStatus.RegisteringVoters' to 'WorkflowStatus.ProposalsRegistrationStarted'. \n     *  Emits a {WorkflowStatusChange} event for each address whitelisted.\n     */\n    function startProposalsRegistering() external onlyOwner {\n        require(workflowStatus == WorkflowStatus.RegisteringVoters, 'Registering proposals cant be started now');\n        workflowStatus = WorkflowStatus.ProposalsRegistrationStarted;\n        emit WorkflowStatusChange(WorkflowStatus.RegisteringVoters, WorkflowStatus.ProposalsRegistrationStarted);\n    }\n\n    /**\n     * @dev Sets 'currentWorkflowStatus' from 'WorkflowStatus.ProposalsRegistrationStarted' to 'WorkflowStatus.ProposalsRegistrationEnded'. \n     *  Emits a {WorkflowStatusChange} event.\n     */\n    function endProposalsRegistering() external onlyOwner {\n        require(workflowStatus == WorkflowStatus.ProposalsRegistrationStarted, 'Registering proposals havent started yet');\n        workflowStatus = WorkflowStatus.ProposalsRegistrationEnded;\n        emit WorkflowStatusChange(WorkflowStatus.ProposalsRegistrationStarted, WorkflowStatus.ProposalsRegistrationEnded);\n    }\n\n    /**\n     * @dev Sets 'currentWorkflowStatus' from 'WorkflowStatus.ProposalsRegistrationEnded' to 'WorkflowStatus.VotingSessionStarted'. \n     *  Emits a {WorkflowStatusChange} event.\n     */\n    function startVotingSession() external onlyOwner {\n        require(workflowStatus == WorkflowStatus.ProposalsRegistrationEnded, 'Registering proposals phase is not finished');\n        workflowStatus = WorkflowStatus.VotingSessionStarted;\n        emit WorkflowStatusChange(WorkflowStatus.ProposalsRegistrationEnded, WorkflowStatus.VotingSessionStarted);\n    }\n\n    /**\n     * @dev Sets 'currentWorkflowStatus' from 'WorkflowStatus.VotingSessionStarted' to 'WorkflowStatus.VotingSessionEnded'. \n     *  Emits a {WorkflowStatusChange} event.\n     */\n    function endVotingSession() external onlyOwner {\n        require(workflowStatus == WorkflowStatus.VotingSessionStarted, 'Voting session havent started yet');\n        workflowStatus = WorkflowStatus.VotingSessionEnded;\n        emit WorkflowStatusChange(WorkflowStatus.VotingSessionStarted, WorkflowStatus.VotingSessionEnded);\n    }\n\n    /**\n     * @dev Tally the votes and set the proposal winner (winningProposalId)\n     */\n\n   function tallyVotes() external onlyOwner {\n       require(workflowStatus == WorkflowStatus.VotingSessionEnded, \"Current status is not voting session ended\");\n       workflowStatus = WorkflowStatus.VotesTallied;\n       emit WorkflowStatusChange(WorkflowStatus.VotingSessionEnded, WorkflowStatus.VotesTallied);\n    }\n}",
  "sourcePath": "/home/fofo/3_Voting_dapp/contracts/Voting.sol",
  "compiler": {
    "name": "solc",
    "version": "0.8.13+commit.abaa5c0e.Emscripten.clang"
  },
  "schemaVersion": "3.4.7",
  "updatedAt": "2022-04-23T21:26:53.521Z",
  "networkType": "ethereum",
  "devdoc": {
    "author": "Pire Yohan",
    "details": "Red Wire for a simple voting system  V3.0 Dapp",
    "events": {
      "ProposalRegistered(uint256)": {
        "details": "Emitted when proposalId is registered in the proposal array."
      },
      "Voted(address,uint256)": {
        "details": "Emitted when voter voted for a proposal via 'proposalId'."
      },
      "VoterRegistered(address)": {
        "details": "Emitted when voterAddress is registered to the whitelist via admin."
      },
      "WorkflowStatusChange(uint8,uint8)": {
        "details": "Emitted when currentWorkflowStatus  set from previous to new status"
      }
    },
    "kind": "dev",
    "methods": {
      "addProposal(string)": {
        "details": "Add a proposal in the proposal array 'proposalsArray' with a description '_desc'.   Emits a {ProposalRegistered} event with the proposal's ID."
      },
      "addVoter(address)": {
        "details": "Set Voter's address '_addr' as registered.      Register a voter and his addr to the Voters Array   Emits a {VoterRegistered} event."
      },
      "endProposalsRegistering()": {
        "details": "Sets 'currentWorkflowStatus' from 'WorkflowStatus.ProposalsRegistrationStarted' to 'WorkflowStatus.ProposalsRegistrationEnded'.   Emits a {WorkflowStatusChange} event."
      },
      "endVotingSession()": {
        "details": "Sets 'currentWorkflowStatus' from 'WorkflowStatus.VotingSessionStarted' to 'WorkflowStatus.VotingSessionEnded'.   Emits a {WorkflowStatusChange} event."
      },
      "getOneProposal(uint256)": {
        "details": "Returns a proposal dtails '_id'  -'msg.sender' needs to be a voter."
      },
      "getVoter(address)": {
        "details": "Returns Voter details ... Address..  - 'msg.sender' needs to be a voter."
      },
      "owner()": {
        "details": "Returns the address of the current owner."
      },
      "renounceOwnership()": {
        "details": "Leaves the contract without owner. It will not be possible to call `onlyOwner` functions anymore. Can only be called by the current owner. NOTE: Renouncing ownership will leave the contract without an owner, thereby removing any functionality that is only available to the owner."
      },
      "setVote(uint256)": {
        "details": "Vote to a proposal with the ID '_id'.   Emits a {Voted} event with the message sender's address and the proposal's ID."
      },
      "startProposalsRegistering()": {
        "details": "Sets 'currentWorkflowStatus' from 'WorkflowStatus.RegisteringVoters' to 'WorkflowStatus.ProposalsRegistrationStarted'.   Emits a {WorkflowStatusChange} event for each address whitelisted."
      },
      "startVotingSession()": {
        "details": "Sets 'currentWorkflowStatus' from 'WorkflowStatus.ProposalsRegistrationEnded' to 'WorkflowStatus.VotingSessionStarted'.   Emits a {WorkflowStatusChange} event."
      },
      "tallyVotes()": {
        "details": "Tally the votes and set the proposal winner (winningProposalId)"
      },
      "transferOwnership(address)": {
        "details": "Transfers ownership of the contract to a new account (`newOwner`). Can only be called by the current owner."
      }
    },
    "title": "Voting smart contract",
    "version": 1
  },
  "userdoc": {
    "kind": "user",
    "methods": {},
    "notice": "You can use this contract to run a simple vote",
    "version": 1
  }
}